{
  "contractName": "ICO",
  "abi": [
    {
      "inputs": [
        {
          "internalType": "string",
          "name": "_name",
          "type": "string"
        },
        {
          "internalType": "string",
          "name": "_symbol",
          "type": "string"
        },
        {
          "internalType": "uint8",
          "name": "_decimals",
          "type": "uint8"
        },
        {
          "internalType": "uint256",
          "name": "_totalsupply",
          "type": "uint256"
        }
      ],
      "stateMutability": "nonpayable",
      "type": "constructor"
    },
    {
      "inputs": [],
      "name": "admin",
      "outputs": [
        {
          "internalType": "address",
          "name": "",
          "type": "address"
        }
      ],
      "stateMutability": "view",
      "type": "function",
      "constant": true
    },
    {
      "inputs": [],
      "name": "availableTokens",
      "outputs": [
        {
          "internalType": "uint256",
          "name": "",
          "type": "uint256"
        }
      ],
      "stateMutability": "view",
      "type": "function",
      "constant": true
    },
    {
      "inputs": [],
      "name": "end",
      "outputs": [
        {
          "internalType": "uint256",
          "name": "",
          "type": "uint256"
        }
      ],
      "stateMutability": "view",
      "type": "function",
      "constant": true
    },
    {
      "inputs": [
        {
          "internalType": "address",
          "name": "",
          "type": "address"
        }
      ],
      "name": "investors",
      "outputs": [
        {
          "internalType": "bool",
          "name": "",
          "type": "bool"
        }
      ],
      "stateMutability": "view",
      "type": "function",
      "constant": true
    },
    {
      "inputs": [],
      "name": "maxPurchase",
      "outputs": [
        {
          "internalType": "uint256",
          "name": "",
          "type": "uint256"
        }
      ],
      "stateMutability": "view",
      "type": "function",
      "constant": true
    },
    {
      "inputs": [],
      "name": "minPurchase",
      "outputs": [
        {
          "internalType": "uint256",
          "name": "",
          "type": "uint256"
        }
      ],
      "stateMutability": "view",
      "type": "function",
      "constant": true
    },
    {
      "inputs": [],
      "name": "price",
      "outputs": [
        {
          "internalType": "uint256",
          "name": "",
          "type": "uint256"
        }
      ],
      "stateMutability": "view",
      "type": "function",
      "constant": true
    },
    {
      "inputs": [],
      "name": "released",
      "outputs": [
        {
          "internalType": "bool",
          "name": "",
          "type": "bool"
        }
      ],
      "stateMutability": "view",
      "type": "function",
      "constant": true
    },
    {
      "inputs": [
        {
          "internalType": "uint256",
          "name": "",
          "type": "uint256"
        }
      ],
      "name": "sales",
      "outputs": [
        {
          "internalType": "address",
          "name": "investor",
          "type": "address"
        },
        {
          "internalType": "uint256",
          "name": "volume",
          "type": "uint256"
        }
      ],
      "stateMutability": "view",
      "type": "function",
      "constant": true
    },
    {
      "inputs": [],
      "name": "token",
      "outputs": [
        {
          "internalType": "address",
          "name": "",
          "type": "address"
        }
      ],
      "stateMutability": "view",
      "type": "function",
      "constant": true
    },
    {
      "inputs": [
        {
          "internalType": "address",
          "name": "_investor",
          "type": "address"
        }
      ],
      "name": "getSale",
      "outputs": [
        {
          "internalType": "uint256",
          "name": "",
          "type": "uint256"
        }
      ],
      "stateMutability": "view",
      "type": "function",
      "constant": true
    },
    {
      "inputs": [
        {
          "internalType": "uint256",
          "name": "duration",
          "type": "uint256"
        },
        {
          "internalType": "uint256",
          "name": "_price",
          "type": "uint256"
        },
        {
          "internalType": "uint256",
          "name": "_availableTokens",
          "type": "uint256"
        },
        {
          "internalType": "uint256",
          "name": "_minPurchase",
          "type": "uint256"
        },
        {
          "internalType": "uint256",
          "name": "_maxPurchase",
          "type": "uint256"
        }
      ],
      "name": "start",
      "outputs": [],
      "stateMutability": "nonpayable",
      "type": "function"
    },
    {
      "inputs": [
        {
          "internalType": "address",
          "name": "investor",
          "type": "address"
        }
      ],
      "name": "whitelist",
      "outputs": [],
      "stateMutability": "nonpayable",
      "type": "function"
    },
    {
      "inputs": [],
      "name": "buy",
      "outputs": [],
      "stateMutability": "payable",
      "type": "function",
      "payable": true
    },
    {
      "inputs": [],
      "name": "release",
      "outputs": [],
      "stateMutability": "nonpayable",
      "type": "function"
    },
    {
      "inputs": [
        {
          "internalType": "address payable",
          "name": "to",
          "type": "address"
        },
        {
          "internalType": "uint256",
          "name": "amount",
          "type": "uint256"
        }
      ],
      "name": "withdraw",
      "outputs": [],
      "stateMutability": "nonpayable",
      "type": "function"
    }
  ],
  "bytecode": "0x60806040523480156200001157600080fd5b50604051620037a7380380620037a78339818101604052810190620000379190620001c3565b600160008190555083838383604051620000519062000109565b620000609493929190620002d6565b604051809103906000f0801580156200007d573d6000803e3d6000fd5b50600260006101000a81548173ffffffffffffffffffffffffffffffffffffffff021916908373ffffffffffffffffffffffffffffffffffffffff16021790555033600360006101000a81548173ffffffffffffffffffffffffffffffffffffffff021916908373ffffffffffffffffffffffffffffffffffffffff16021790555050505050620004b7565b6114a4806200230383390190565b60006200012e62000128846200035a565b62000331565b9050828152602081018484840111156200014d576200014c62000463565b5b6200015a848285620003c3565b509392505050565b600082601f8301126200017a57620001796200045e565b5b81516200018c84826020860162000117565b91505092915050565b600081519050620001a68162000483565b92915050565b600081519050620001bd816200049d565b92915050565b60008060008060808587031215620001e057620001df6200046d565b5b600085015167ffffffffffffffff81111562000201576200020062000468565b5b6200020f8782880162000162565b945050602085015167ffffffffffffffff81111562000233576200023262000468565b5b620002418782880162000162565b93505060406200025487828801620001ac565b9250506060620002678782880162000195565b91505092959194509250565b6000620002808262000390565b6200028c81856200039b565b93506200029e818560208601620003c3565b620002a98162000472565b840191505092915050565b620002bf81620003ac565b82525050565b620002d081620003b6565b82525050565b60006080820190508181036000830152620002f2818762000273565b9050818103602083015262000308818662000273565b9050620003196040830185620002c5565b620003286060830184620002b4565b95945050505050565b60006200033d62000350565b90506200034b8282620003f9565b919050565b6000604051905090565b600067ffffffffffffffff8211156200037857620003776200042f565b5b620003838262000472565b9050602081019050919050565b600081519050919050565b600082825260208201905092915050565b6000819050919050565b600060ff82169050919050565b60005b83811015620003e3578082015181840152602081019050620003c6565b83811115620003f3576000848401525b50505050565b620004048262000472565b810181811067ffffffffffffffff821117156200042657620004256200042f565b5b80604052505050565b7f4e487b7100000000000000000000000000000000000000000000000000000000600052604160045260246000fd5b600080fd5b600080fd5b600080fd5b600080fd5b6000601f19601f8301169050919050565b6200048e81620003ac565b81146200049a57600080fd5b50565b620004a881620003b6565b8114620004b457600080fd5b50565b611e3c80620004c76000396000f3fe6080604052600436106100f35760003560e01c8063a035b1fe1161008a578063efbe1c1c11610059578063efbe1c1c146102fa578063f3fef3a314610325578063f851a4401461034e578063fc0c546a14610379576100f3565b8063a035b1fe1461025e578063a6f2ae3a14610289578063b5f522f714610293578063d607b55b146102d1576100f3565b806386d1a69f116100c657806386d1a69f146101c857806396132521146101df578063977b055b1461020a5780639b19251a14610235576100f3565b806325b8b8cb146100f857806333b5b62e1461013557806369bb4dc2146101605780636f7bc9be1461018b575b600080fd5b34801561010457600080fd5b5061011f600480360381019061011a91906111a9565b6103a4565b60405161012c9190611817565b60405180910390f35b34801561014157600080fd5b5061014a61047e565b6040516101579190611817565b60405180910390f35b34801561016c57600080fd5b50610175610484565b6040516101829190611817565b60405180910390f35b34801561019757600080fd5b506101b260048036038101906101ad91906111a9565b61048a565b6040516101bf91906115dc565b60405180910390f35b3480156101d457600080fd5b506101dd6104aa565b005b3480156101eb57600080fd5b506101f4610771565b60405161020191906115dc565b60405180910390f35b34801561021657600080fd5b5061021f610784565b60405161022c9190611817565b60405180910390f35b34801561024157600080fd5b5061025c600480360381019061025791906111a9565b61078a565b005b34801561026a57600080fd5b50610273610875565b6040516102809190611817565b60405180910390f35b61029161087b565b005b34801561029f57600080fd5b506102ba60048036038101906102b59190611243565b610b1b565b6040516102c89291906115b3565b60405180910390f35b3480156102dd57600080fd5b506102f860048036038101906102f3919061129d565b610b6f565b005b34801561030657600080fd5b5061030f610edb565b60405161031c9190611817565b60405180910390f35b34801561033157600080fd5b5061034c600480360381019061034791906111d6565b610ee1565b005b34801561035a57600080fd5b506103636110c8565b6040516103709190611598565b60405180910390f35b34801561038557600080fd5b5061038e6110ee565b60405161039b9190611598565b60405180910390f35b600080600090505b600180549050811015610473578273ffffffffffffffffffffffffffffffffffffffff16600182815481106103e4576103e3611a25565b5b906000526020600020906002020160000160009054906101000a900473ffffffffffffffffffffffffffffffffffffffff1673ffffffffffffffffffffffffffffffffffffffff161415610460576001818154811061044657610445611a25565b5b906000526020600020906002020160010154915050610479565b808061046b9061194d565b9150506103ac565b50600090505b919050565b60075481565b60065481565b600a6020528060005260406000206000915054906101000a900460ff1681565b600360009054906101000a900473ffffffffffffffffffffffffffffffffffffffff1673ffffffffffffffffffffffffffffffffffffffff163373ffffffffffffffffffffffffffffffffffffffff161461053a576040517f08c379a000000000000000000000000000000000000000000000000000000000815260040161053190611697565b60405180910390fd5b600060045411801561055b57506004544210158061055a57506000600654145b5b61059a576040517f08c379a000000000000000000000000000000000000000000000000000000000815260040161059190611757565b60405180910390fd5b60001515600960009054906101000a900460ff161515146105f0576040517f08c379a00000000000000000000000000000000000000000000000000000000081526004016105e7906115f7565b60405180910390fd5b60026000541415610636576040517f08c379a000000000000000000000000000000000000000000000000000000000815260040161062d906117d7565b60405180910390fd5b60026000819055506000600260009054906101000a900473ffffffffffffffffffffffffffffffffffffffff16905060005b6001805490508110156107655760006001828154811061068b5761068a611a25565b5b906000526020600020906002020190508273ffffffffffffffffffffffffffffffffffffffff1663a9059cbb8260000160009054906101000a900473ffffffffffffffffffffffffffffffffffffffff1683600101546040518363ffffffff1660e01b81526004016106fe9291906115b3565b602060405180830381600087803b15801561071857600080fd5b505af115801561072c573d6000803e3d6000fd5b505050506040513d601f19601f820116820180604052508101906107509190611216565b5050808061075d9061194d565b915050610668565b50506001600081905550565b600960009054906101000a900460ff1681565b60085481565b600360009054906101000a900473ffffffffffffffffffffffffffffffffffffffff1673ffffffffffffffffffffffffffffffffffffffff163373ffffffffffffffffffffffffffffffffffffffff161461081a576040517f08c379a000000000000000000000000000000000000000000000000000000000815260040161081190611697565b60405180910390fd5b6001600a60008373ffffffffffffffffffffffffffffffffffffffff1673ffffffffffffffffffffffffffffffffffffffff16815260200190815260200160002060006101000a81548160ff02191690831515021790555050565b60055481565b60011515600a60003373ffffffffffffffffffffffffffffffffffffffff1673ffffffffffffffffffffffffffffffffffffffff16815260200190815260200160002060009054906101000a900460ff1615151461090e576040517f08c379a000000000000000000000000000000000000000000000000000000000815260040161090590611617565b60405180910390fd5b6000600454118015610921575060045442105b801561092f57506000600654115b61096e576040517f08c379a000000000000000000000000000000000000000000000000000000000815260040161096590611717565b60405180910390fd5b60006005543461097e9190611996565b146109be576040517f08c379a00000000000000000000000000000000000000000000000000000000081526004016109b590611677565b60405180910390fd5b60075434101580156109d257506008543411155b610a11576040517f08c379a0000000000000000000000000000000000000000000000000000000008152600401610a08906116f7565b60405180910390fd5b6000610a283460055461111490919063ffffffff16565b9050600654811115610a6f576040517f08c379a0000000000000000000000000000000000000000000000000000000008152600401610a6690611657565b60405180910390fd5b600160405180604001604052803373ffffffffffffffffffffffffffffffffffffffff16815260200183815250908060018154018082558091505060019003906000526020600020906002020160009091909190915060008201518160000160006101000a81548173ffffffffffffffffffffffffffffffffffffffff021916908373ffffffffffffffffffffffffffffffffffffffff16021790555060208201518160010155505050565b60018181548110610b2b57600080fd5b90600052602060002090600202016000915090508060000160009054906101000a900473ffffffffffffffffffffffffffffffffffffffff16908060010154905082565b600360009054906101000a900473ffffffffffffffffffffffffffffffffffffffff1673ffffffffffffffffffffffffffffffffffffffff163373ffffffffffffffffffffffffffffffffffffffff1614610bff576040517f08c379a0000000000000000000000000000000000000000000000000000000008152600401610bf690611697565b60405180910390fd5b600060045414610c44576040517f08c379a0000000000000000000000000000000000000000000000000000000008152600401610c3b906117b7565b60405180910390fd5b60008511610c87576040517f08c379a0000000000000000000000000000000000000000000000000000000008152600401610c7e90611637565b60405180910390fd5b6000600260009054906101000a900473ffffffffffffffffffffffffffffffffffffffff1673ffffffffffffffffffffffffffffffffffffffff166318160ddd6040518163ffffffff1660e01b815260040160206040518083038186803b158015610cf157600080fd5b505afa158015610d05573d6000803e3d6000fd5b505050506040513d601f19601f82011682018060405250810190610d299190611270565b9050600084118015610d3b5750808411155b610d7a576040517f08c379a0000000000000000000000000000000000000000000000000000000008152600401610d7190611797565b60405180910390fd5b60008311610dbd576040517f08c379a0000000000000000000000000000000000000000000000000000000008152600401610db490611777565b60405180910390fd5b600082118015610dcd5750838211155b610e0c576040517f08c379a0000000000000000000000000000000000000000000000000000000008152600401610e03906116d7565b60405180910390fd5b60008311610e4f576040517f08c379a0000000000000000000000000000000000000000000000000000000008152600401610e46906116b7565b60405180910390fd5b600082118015610e5f5750838211155b610e9e576040517f08c379a0000000000000000000000000000000000000000000000000000000008152600401610e95906117f7565b60405180910390fd5b610eb1428761112a90919063ffffffff16565b60048190555084600581905550836006819055508260078190555081600881905550505050505050565b60045481565b600360009054906101000a900473ffffffffffffffffffffffffffffffffffffffff1673ffffffffffffffffffffffffffffffffffffffff163373ffffffffffffffffffffffffffffffffffffffff1614610f71576040517f08c379a0000000000000000000000000000000000000000000000000000000008152600401610f6890611697565b60405180910390fd5b6000600454118015610f92575060045442101580610f9157506000600654145b5b610fd1576040517f08c379a0000000000000000000000000000000000000000000000000000000008152600401610fc890611757565b60405180910390fd5b60011515600960009054906101000a900460ff16151514611027576040517f08c379a000000000000000000000000000000000000000000000000000000000815260040161101e90611737565b60405180910390fd5b6002600054141561106d576040517f08c379a0000000000000000000000000000000000000000000000000000000008152600401611064906117d7565b60405180910390fd5b60026000819055508173ffffffffffffffffffffffffffffffffffffffff166108fc829081150290604051600060405180830381858888f193505050501580156110bb573d6000803e3d6000fd5b5060016000819055505050565b600360009054906101000a900473ffffffffffffffffffffffffffffffffffffffff1681565b600260009054906101000a900473ffffffffffffffffffffffffffffffffffffffff1681565b600081836111229190611899565b905092915050565b600081836111389190611843565b905092915050565b60008135905061114f81611daa565b92915050565b60008135905061116481611dc1565b92915050565b60008151905061117981611dd8565b92915050565b60008135905061118e81611def565b92915050565b6000815190506111a381611def565b92915050565b6000602082840312156111bf576111be611a54565b5b60006111cd84828501611140565b91505092915050565b600080604083850312156111ed576111ec611a54565b5b60006111fb85828601611155565b925050602061120c8582860161117f565b9150509250929050565b60006020828403121561122c5761122b611a54565b5b600061123a8482850161116a565b91505092915050565b60006020828403121561125957611258611a54565b5b60006112678482850161117f565b91505092915050565b60006020828403121561128657611285611a54565b5b600061129484828501611194565b91505092915050565b600080600080600060a086880312156112b9576112b8611a54565b5b60006112c78882890161117f565b95505060206112d88882890161117f565b94505060406112e98882890161117f565b93505060606112fa8882890161117f565b925050608061130b8882890161117f565b9150509295509295909350565b611321816118f3565b82525050565b61133081611917565b82525050565b6000611343601383611832565b915061134e82611a59565b602082019050919050565b6000611366600e83611832565b915061137182611a82565b602082019050919050565b6000611389601483611832565b915061139482611aab565b602082019050919050565b60006113ac601f83611832565b91506113b782611ad4565b602082019050919050565b60006113cf601b83611832565b91506113da82611afd565b602082019050919050565b60006113f2600a83611832565b91506113fd82611b26565b602082019050919050565b6000611415602383611832565b915061142082611b4f565b604082019050919050565b6000611438603e83611832565b915061144382611b9e565b604082019050919050565b600061145b601983611832565b915061146682611bed565b602082019050919050565b600061147e601283611832565b915061148982611c16565b602082019050919050565b60006114a1601783611832565b91506114ac82611c3f565b602082019050919050565b60006114c4600c83611832565b91506114cf82611c68565b602082019050919050565b60006114e7601683611832565b91506114f282611c91565b602082019050919050565b600061150a602283611832565b915061151582611cba565b604082019050919050565b600061152d601883611832565b915061153882611d09565b602082019050919050565b6000611550601f83611832565b915061155b82611d32565b602082019050919050565b6000611573602483611832565b915061157e82611d5b565b604082019050919050565b61159281611943565b82525050565b60006020820190506115ad6000830184611318565b92915050565b60006040820190506115c86000830185611318565b6115d56020830184611589565b9392505050565b60006020820190506115f16000830184611327565b92915050565b6000602082019050818103600083015261161081611336565b9050919050565b6000602082019050818103600083015261163081611359565b9050919050565b600060208201905081810360008301526116508161137c565b9050919050565b600060208201905081810360008301526116708161139f565b9050919050565b60006020820190508181036000830152611690816113c2565b9050919050565b600060208201905081810360008301526116b0816113e5565b9050919050565b600060208201905081810360008301526116d081611408565b9050919050565b600060208201905081810360008301526116f08161142b565b9050919050565b600060208201905081810360008301526117108161144e565b9050919050565b6000602082019050818103600083015261173081611471565b9050919050565b6000602082019050818103600083015261175081611494565b9050919050565b60006020820190508181036000830152611770816114b7565b9050919050565b60006020820190508181036000830152611790816114da565b9050919050565b600060208201905081810360008301526117b0816114fd565b9050919050565b600060208201905081810360008301526117d081611520565b9050919050565b600060208201905081810360008301526117f081611543565b9050919050565b6000602082019050818103600083015261181081611566565b9050919050565b600060208201905061182c6000830184611589565b92915050565b600082825260208201905092915050565b600061184e82611943565b915061185983611943565b9250827fffffffffffffffffffffffffffffffffffffffffffffffffffffffffffffffff0382111561188e5761188d6119c7565b5b828201905092915050565b60006118a482611943565b91506118af83611943565b9250817fffffffffffffffffffffffffffffffffffffffffffffffffffffffffffffffff04831182151516156118e8576118e76119c7565b5b828202905092915050565b60006118fe82611923565b9050919050565b600061191082611923565b9050919050565b60008115159050919050565b600073ffffffffffffffffffffffffffffffffffffffff82169050919050565b6000819050919050565b600061195882611943565b91507fffffffffffffffffffffffffffffffffffffffffffffffffffffffffffffffff82141561198b5761198a6119c7565b5b600182019050919050565b60006119a182611943565b91506119ac83611943565b9250826119bc576119bb6119f6565b5b828206905092915050565b7f4e487b7100000000000000000000000000000000000000000000000000000000600052601160045260246000fd5b7f4e487b7100000000000000000000000000000000000000000000000000000000600052601260045260246000fd5b7f4e487b7100000000000000000000000000000000000000000000000000000000600052603260045260246000fd5b600080fd5b7f544f4b454e53204e4f542052454c454153454400000000000000000000000000600082015250565b7f494e564553544f5253204f4e4c59000000000000000000000000000000000000600082015250565b7f6475726174696f6e206d757374206265203e2030000000000000000000000000600082015250565b7f6e6f7420656e6f75676820746f6b656e73206c65667420666f722073616c6500600082015250565b7f6d7573742073656e64206d756c7469706c65206f662070726963650000000000600082015250565b7f4f4e4c592041444d494e00000000000000000000000000000000000000000000600082015250565b7f5f6d696e5075726368617365204d55535420424520677265617465722074686160008201527f6e20300000000000000000000000000000000000000000000000000000000000602082015250565b7f53686f756c642062652067726561746572207468616e203020616e642067726560008201527f61746572206f7220657175616c207468616e20746f74616c537570706c790000602082015250565b7f4d5553542053454e4420425457204d494e20414e44204d415800000000000000600082015250565b7f49434f204d555354204245204143544956450000000000000000000000000000600082015250565b7f544f4b454e53204d5553542042452052454c4541534544000000000000000000600082015250565b7f49434f206d75737420454e440000000000000000000000000000000000000000600082015250565b7f4d5553542042452047524541544552205448414e203000000000000000000000600082015250565b7f746f74616c537570706c79203e203020616e64203c3d20746f74616c5375707060008201527f6c79000000000000000000000000000000000000000000000000000000000000602082015250565b7f49434f2053484f554c44204e4f54204245204143544956450000000000000000600082015250565b7f5265656e7472616e637947756172643a207265656e7472616e742063616c6c00600082015250565b7f53686f756c64206265203e203020616e64203c3d20617661696c61626c65546f60008201527f6b656e7300000000000000000000000000000000000000000000000000000000602082015250565b611db3816118f3565b8114611dbe57600080fd5b50565b611dca81611905565b8114611dd557600080fd5b50565b611de181611917565b8114611dec57600080fd5b50565b611df881611943565b8114611e0357600080fd5b5056fea2646970667358221220d907542fb755e4e2a8901cf640d22fc7a8cac1b5f4bc1ae4a95f5321fec21a7364736f6c6343000806003360806040523480156200001157600080fd5b50604051620014a4380380620014a4833981810160405281019062000037919062000235565b83600090805190602001906200004f929190620000d9565b50826001908051906020019062000068929190620000d9565b5081600260006101000a81548160ff021916908360ff1602179055508060038190555080600460003373ffffffffffffffffffffffffffffffffffffffff1673ffffffffffffffffffffffffffffffffffffffff1681526020019081526020016000208190555050505050620004b4565b828054620000e79062000391565b90600052602060002090601f0160209004810192826200010b576000855562000157565b82601f106200012657805160ff191683800117855562000157565b8280016001018555821562000157579182015b828111156200015657825182559160200191906001019062000139565b5b5090506200016691906200016a565b5090565b5b80821115620001855760008160009055506001016200016b565b5090565b6000620001a06200019a846200030e565b620002e5565b905082815260208101848484011115620001bf57620001be62000460565b5b620001cc8482856200035b565b509392505050565b600082601f830112620001ec57620001eb6200045b565b5b8151620001fe84826020860162000189565b91505092915050565b600081519050620002188162000480565b92915050565b6000815190506200022f816200049a565b92915050565b600080600080608085870312156200025257620002516200046a565b5b600085015167ffffffffffffffff81111562000273576200027262000465565b5b6200028187828801620001d4565b945050602085015167ffffffffffffffff811115620002a557620002a462000465565b5b620002b387828801620001d4565b9350506040620002c6878288016200021e565b9250506060620002d98782880162000207565b91505092959194509250565b6000620002f162000304565b9050620002ff8282620003c7565b919050565b6000604051905090565b600067ffffffffffffffff8211156200032c576200032b6200042c565b5b62000337826200046f565b9050602081019050919050565b6000819050919050565b600060ff82169050919050565b60005b838110156200037b5780820151818401526020810190506200035e565b838111156200038b576000848401525b50505050565b60006002820490506001821680620003aa57607f821691505b60208210811415620003c157620003c0620003fd565b5b50919050565b620003d2826200046f565b810181811067ffffffffffffffff82111715620003f457620003f36200042c565b5b80604052505050565b7f4e487b7100000000000000000000000000000000000000000000000000000000600052602260045260246000fd5b7f4e487b7100000000000000000000000000000000000000000000000000000000600052604160045260246000fd5b600080fd5b600080fd5b600080fd5b600080fd5b6000601f19601f8301169050919050565b6200048b8162000344565b81146200049757600080fd5b50565b620004a5816200034e565b8114620004b157600080fd5b50565b610fe080620004c46000396000f3fe608060405234801561001057600080fd5b50600436106100a95760003560e01c8063313ce56711610071578063313ce5671461017a5780635c6581651461019857806370a08231146101c857806395d89b41146101f8578063a9059cbb14610216578063dd62ed3e14610246576100a9565b806306fdde03146100ae578063095ea7b3146100cc57806318160ddd146100fc57806323b872dd1461011a57806327e235e31461014a575b600080fd5b6100b6610276565b6040516100c39190610c75565b60405180910390f35b6100e660048036038101906100e19190610b4b565b610304565b6040516100f39190610c5a565b60405180910390f35b6101046103f6565b6040516101119190610cf7565b60405180910390f35b610134600480360381019061012f9190610af8565b610400565b6040516101419190610c5a565b60405180910390f35b610164600480360381019061015f9190610a8b565b6106ee565b6040516101719190610cf7565b60405180910390f35b610182610706565b60405161018f9190610d12565b60405180910390f35b6101b260048036038101906101ad9190610ab8565b610719565b6040516101bf9190610cf7565b60405180910390f35b6101e260048036038101906101dd9190610a8b565b61073e565b6040516101ef9190610cf7565b60405180910390f35b610200610787565b60405161020d9190610c75565b60405180910390f35b610230600480360381019061022b9190610b4b565b610815565b60405161023d9190610c5a565b60405180910390f35b610260600480360381019061025b9190610ab8565b6109ae565b60405161026d9190610cf7565b60405180910390f35b6000805461028390610e5b565b80601f01602080910402602001604051908101604052809291908181526020018280546102af90610e5b565b80156102fc5780601f106102d1576101008083540402835291602001916102fc565b820191906000526020600020905b8154815290600101906020018083116102df57829003601f168201915b505050505081565b600081600560003373ffffffffffffffffffffffffffffffffffffffff1673ffffffffffffffffffffffffffffffffffffffff16815260200190815260200160002060008573ffffffffffffffffffffffffffffffffffffffff1673ffffffffffffffffffffffffffffffffffffffff168152602001908152602001600020819055508273ffffffffffffffffffffffffffffffffffffffff163373ffffffffffffffffffffffffffffffffffffffff167f8c5be1e5ebec7d5bd14f71427d1e84f3dd0314c0f7b2291e5b200ac8c7c3b925846040516103e49190610cf7565b60405180910390a36001905092915050565b6000600354905090565b600080600560008673ffffffffffffffffffffffffffffffffffffffff1673ffffffffffffffffffffffffffffffffffffffff16815260200190815260200160002060003373ffffffffffffffffffffffffffffffffffffffff1673ffffffffffffffffffffffffffffffffffffffff168152602001908152602001600020549050828110156104c5576040517f08c379a00000000000000000000000000000000000000000000000000000000081526004016104bc90610cb7565b60405180910390fd5b82600460008773ffffffffffffffffffffffffffffffffffffffff1673ffffffffffffffffffffffffffffffffffffffff168152602001908152602001600020541015610547576040517f08c379a000000000000000000000000000000000000000000000000000000000815260040161053e90610c97565b60405180910390fd5b6105d683600560008873ffffffffffffffffffffffffffffffffffffffff1673ffffffffffffffffffffffffffffffffffffffff16815260200190815260200160002060003373ffffffffffffffffffffffffffffffffffffffff1673ffffffffffffffffffffffffffffffffffffffff16815260200190815260200160002054610a3590919063ffffffff16565b5061062983600460008873ffffffffffffffffffffffffffffffffffffffff1673ffffffffffffffffffffffffffffffffffffffff16815260200190815260200160002054610a3590919063ffffffff16565b5061067c83600460008773ffffffffffffffffffffffffffffffffffffffff1673ffffffffffffffffffffffffffffffffffffffff16815260200190815260200160002054610a4b90919063ffffffff16565b508373ffffffffffffffffffffffffffffffffffffffff163373ffffffffffffffffffffffffffffffffffffffff167fddf252ad1be2c89b69c2b068fc378daa952ba7f163c4a11628f55a4df523b3ef856040516106da9190610cf7565b60405180910390a360019150509392505050565b60046020528060005260406000206000915090505481565b600260009054906101000a900460ff1681565b6005602052816000526040600020602052806000526040600020600091509150505481565b6000600460008373ffffffffffffffffffffffffffffffffffffffff1673ffffffffffffffffffffffffffffffffffffffff168152602001908152602001600020549050919050565b6001805461079490610e5b565b80601f01602080910402602001604051908101604052809291908181526020018280546107c090610e5b565b801561080d5780601f106107e25761010080835404028352916020019161080d565b820191906000526020600020905b8154815290600101906020018083116107f057829003601f168201915b505050505081565b600081600460003373ffffffffffffffffffffffffffffffffffffffff1673ffffffffffffffffffffffffffffffffffffffff168152602001908152602001600020541015610899576040517f08c379a000000000000000000000000000000000000000000000000000000000815260040161089090610cd7565b60405180910390fd5b6108eb82600460003373ffffffffffffffffffffffffffffffffffffffff1673ffffffffffffffffffffffffffffffffffffffff16815260200190815260200160002054610a3590919063ffffffff16565b5061093e82600460008673ffffffffffffffffffffffffffffffffffffffff1673ffffffffffffffffffffffffffffffffffffffff16815260200190815260200160002054610a4b90919063ffffffff16565b508273ffffffffffffffffffffffffffffffffffffffff163373ffffffffffffffffffffffffffffffffffffffff167fddf252ad1be2c89b69c2b068fc378daa952ba7f163c4a11628f55a4df523b3ef8460405161099c9190610cf7565b60405180910390a36001905092915050565b6000600560008473ffffffffffffffffffffffffffffffffffffffff1673ffffffffffffffffffffffffffffffffffffffff16815260200190815260200160002060008373ffffffffffffffffffffffffffffffffffffffff1673ffffffffffffffffffffffffffffffffffffffff16815260200190815260200160002054905092915050565b60008183610a439190610d9f565b905092915050565b60008183610a599190610d49565b905092915050565b600081359050610a7081610f7c565b92915050565b600081359050610a8581610f93565b92915050565b600060208284031215610aa157610aa0610eeb565b5b6000610aaf84828501610a61565b91505092915050565b60008060408385031215610acf57610ace610eeb565b5b6000610add85828601610a61565b9250506020610aee85828601610a61565b9150509250929050565b600080600060608486031215610b1157610b10610eeb565b5b6000610b1f86828701610a61565b9350506020610b3086828701610a61565b9250506040610b4186828701610a76565b9150509250925092565b60008060408385031215610b6257610b61610eeb565b5b6000610b7085828601610a61565b9250506020610b8185828601610a76565b9150509250929050565b610b9481610de5565b82525050565b6000610ba582610d2d565b610baf8185610d38565b9350610bbf818560208601610e28565b610bc881610ef0565b840191505092915050565b6000610be0600f83610d38565b9150610beb82610f01565b602082019050919050565b6000610c03600d83610d38565b9150610c0e82610f2a565b602082019050919050565b6000610c26601283610d38565b9150610c3182610f53565b602082019050919050565b610c4581610e11565b82525050565b610c5481610e1b565b82525050565b6000602082019050610c6f6000830184610b8b565b92915050565b60006020820190508181036000830152610c8f8184610b9a565b905092915050565b60006020820190508181036000830152610cb081610bd3565b9050919050565b60006020820190508181036000830152610cd081610bf6565b9050919050565b60006020820190508181036000830152610cf081610c19565b9050919050565b6000602082019050610d0c6000830184610c3c565b92915050565b6000602082019050610d276000830184610c4b565b92915050565b600081519050919050565b600082825260208201905092915050565b6000610d5482610e11565b9150610d5f83610e11565b9250827fffffffffffffffffffffffffffffffffffffffffffffffffffffffffffffffff03821115610d9457610d93610e8d565b5b828201905092915050565b6000610daa82610e11565b9150610db583610e11565b925082821015610dc857610dc7610e8d565b5b828203905092915050565b6000610dde82610df1565b9050919050565b60008115159050919050565b600073ffffffffffffffffffffffffffffffffffffffff82169050919050565b6000819050919050565b600060ff82169050919050565b60005b83811015610e46578082015181840152602081019050610e2b565b83811115610e55576000848401525b50505050565b60006002820490506001821680610e7357607f821691505b60208210811415610e8757610e86610ebc565b5b50919050565b7f4e487b7100000000000000000000000000000000000000000000000000000000600052601160045260246000fd5b7f4e487b7100000000000000000000000000000000000000000000000000000000600052602260045260246000fd5b600080fd5b6000601f19601f8301169050919050565b7f62616c616e636520746f6f206c6f770000000000000000000000000000000000600082015250565b7f76616c756520746f6f206c6f7700000000000000000000000000000000000000600082015250565b7f696e73756666696369656e742066756e64730000000000000000000000000000600082015250565b610f8581610dd3565b8114610f9057600080fd5b50565b610f9c81610e11565b8114610fa757600080fd5b5056fea264697066735822122000b860a8515be5863339d5337cec8fabb0385910f5011353245ed38c13a1412f64736f6c63430008060033",
  "immutableReferences": {},
  "source": "// SPDX-License-Identifier: MIT\npragma solidity ^0.8.6;\nimport \"./ERC20Token.sol\";\nimport \"../@openzeppelin/contracts/security/ReentrancyGuard.sol\";\nimport \"../@openzeppelin/contracts/utils/math/SafeMath.sol\";\ncontract ICO is ReentrancyGuard {\n    using SafeMath for uint256;\n    struct Sale {\n        address investor;\n        uint256 volume;\n    }\n    Sale[] public sales;\n    modifier activeICO() {\n        require(end > 0 && block.timestamp < end && availableTokens > 0,\n        \"ICO MUST BE ACTIVE\");\n        _;\n    }\n    modifier unactivatedICO() {\n        require(end == 0, \"ICO SHOULD NOT BE ACTIVE\");\n        _;\n    }\n    modifier endOfICO() {\n        require(end > 0 && (block.timestamp >= end || availableTokens == 0), \"ICO must END\");\n        _;\n    }\n    modifier onlyAdmin() {\n        require(msg.sender == admin, \"ONLY ADMIN\");\n        _;\n    }\n    modifier onlyInvestors() {\n        require(investors[msg.sender] == true, \"INVESTORS ONLY\");\n        _;\n    }\n    modifier tokensNotReleased() {\n        require(released == false, \"TOKENS NOT RELEASED\");\n        _;\n    }\n    modifier tokensReleased() {\n        require(released == true, \"TOKENS MUST BE RELEASED\");\n        _;\n    }\n    address public token;\n    address public admin;\n    uint256 public end;\n    uint256 public price;\n    uint256 public availableTokens;\n    uint256 public minPurchase;\n    uint256 public maxPurchase;\n    bool public released;\n    mapping(address => bool) public investors;\n    constructor(\n    string memory _name,\n    string memory _symbol,\n    uint8 _decimals,\n    uint256 _totalsupply\n    ) {\n        token = address(\n            new ERC20Token(_name, _symbol, _decimals, _totalsupply)\n        );\n        admin = msg.sender;\n    }\n     function getSale(address _investor) external view returns (uint256) {\n        for (uint256 i = 0; i < sales.length; i++) {\n            if (sales[i].investor == _investor) {\n                return sales[i].volume;\n            }\n        }\n        return 0;\n    }\n    function start(uint256 duration, uint256 _price, uint256 _availableTokens, uint256 _minPurchase, uint256 _maxPurchase) external onlyAdmin unactivatedICO {\n        require(duration > 0, \"duration must be > 0\");\n        uint256 totalSupply = ERC20Token(token).totalSupply();\n        require(_availableTokens > 0 && _availableTokens <= totalSupply,\n        \"totalSupply > 0 and <= totalSupply\"\n        );\n        require(_minPurchase > 0, \"MUST BE GREATER THAN 0\");\n        require(_maxPurchase > 0 && _maxPurchase <= _availableTokens,\n        \"Should be greater than 0 and greater or equal than totalSupply\"\n        );\n        require(_minPurchase > 0, \"_minPurchase MUST BE greater than 0\");\n        require(_maxPurchase > 0 && _maxPurchase <= _availableTokens,\n        \"Should be > 0 and <= availableTokens\"\n        );\n        end = duration.add(block.timestamp);\n        price = _price;\n        availableTokens = _availableTokens;\n        minPurchase = _minPurchase;\n        maxPurchase = _maxPurchase;\n    }\n    function whitelist(address investor) external onlyAdmin {\n        investors[investor] = true;\n    }\n    function buy() external payable onlyInvestors activeICO {\n        require(msg.value % price == 0, \"must send multiple of price\");\n        require(\n            msg.value >= minPurchase && msg.value <= maxPurchase,\n            \"MUST SEND BTW MIN AND MAX\"\n        );\n        uint256 quantity = price.mul(msg.value);\n        require(quantity <= availableTokens, \"not enough tokens left for sale\");\n        sales.push(Sale(msg.sender, quantity));\n    }\n    function release() external onlyAdmin endOfICO tokensNotReleased nonReentrant {\n        ERC20Token tokenInstance = ERC20Token(token);\n        for(uint256 i = 0; i < sales.length; i++) {\n            Sale storage sale = sales[i];\n            tokenInstance.transfer(sale.investor, sale.volume);\n        }\n    }\n    function withdraw(address payable to, uint256 amount) external onlyAdmin endOfICO tokensReleased nonReentrant {\n        to.transfer(amount);\n    }\n\n}",
  "sourcePath": "/Users/heyyehudes/Documents/Project-ICO/contracts/ICO.sol",
  "compiler": {
    "name": "solc",
    "version": "0.8.6+commit.11564f7e.Emscripten.clang"
  },
  "schemaVersion": "3.3.1",
  "updatedAt": "2021-08-06T22:01:55.231Z",
  "networkType": "ethereum",
  "devdoc": {
    "kind": "dev",
    "methods": {},
    "version": 1
  },
  "userdoc": {
    "kind": "user",
    "methods": {},
    "version": 1
  }
}